:10025000C295C2917FF47E01120263D295D2917F42
:03026000F47E0128
:10026300D3EF9400EE940040147D727C00ED1D707A
:0D027300011CED4C70F7EF1F70E61E80E3DC
:01028000225B
:1002A700438902E4F58CF58AD2AFD2A9D28CD288E1
:0302B700D2A822A8
:03000B00020006EA
:0300060005473279
:030003000201D225
:0901D200C0E0C0D075D000C000EF
:1001DB00E50945086029E547C39435500AE547C34F
:1001EB009420400375210074222521F8A6477547FA
:1001FB00000521E521B42110D2017521008009757C
:08020B004700750800750901A8
:07021300D000D0D0D0E03292
:10021A007F01E4FEE4FD74222FF8E6D3940540083A
:10022A0074432EF8E64480F6EDC39407500C7443E9
:10023A002EF8C000E6C313D000F60F0DBD08D70E86
:05024A00BE04D1D2004A
:01024F00228C
:0C000E00E545641860030200CF1202A751
:10001A0020950B120250050DE50D7002050CE50D39
:10002A00450C70047F0180027F003095047E0180B8
:10003A00027E00EE5F600EC291D29512025FD291EB
:10004A00D29512025FE50D6401450C700EC291C291
:10005A009512025FD291D29512025F3001571202B5
:10006A001AE545120281009F08008F0C00931800C0
:10007A00A31C00AB4200B34A00AF5200A75A009B30
:10008A005E000000B8B2908028750A00750B0180E6
:10009A0020B292801CB2938018B2948014B29580D8
:1000AA0010B296800CB29780087590FF8003E4F531
:1000BA0090C200C201E50B6401450A600302001AFE
:0500CA00D29102017B50
:0C00CF00E545645A60030201831202A799
:1000DB0020910B120250050DE50D7002050CE50D7C
:1000EB00450C70047F0180027F003091047E0180FB
:1000FB00027E00EE5F6007C295D291120254E50DAD
:10010B006401450C700312025030015712021AE5BC
:10011B0045120281014A08013E0C014218014E1C96
:10012B00015A4201624A015E5201525A01465E0077
:10013B00000167B2908028B2918024B2928020B2E5
:10014B0093801CB2948018750A00750B018010B255
:10015B0096800CB29780087590FF8003E4F590C2EF
:10016B0000C201E50B6401450A60030200DBD29576
:08017B00F50AF50BF50CF50D7A
:010183002259
:10018400E54512028101B20801A80C01AC1801B6C0
:100194001C01BF4201C74A01C35201AC5A01AE5E01
:1001A400000001CCB2908023800CB292801DB293E7
:1001B4008019B294801512000E8010B296800CB291
:0E01C4009780087590FF8003E4F590C200223A
:1002BA001202A73001FDC20112021A12018480F350
:030000000202CA2F
:0C02CA00787FE4F6D8FD7581470202BA87
:10028100D083D082F8E4937012740193700DA3A30C
:1002910093F8740193F5828883E473740293686020
:0602A100EFA3A3A380DF20
:00000001FF
